{
  "contractName": "Forecast",
  "abi": [
    {
      "inputs": [],
      "stateMutability": "nonpayable",
      "type": "constructor"
    },
    {
      "anonymous": false,
      "inputs": [
        {
          "indexed": true,
          "internalType": "address",
          "name": "_from",
          "type": "address"
        },
        {
          "indexed": true,
          "internalType": "address",
          "name": "_to",
          "type": "address"
        },
        {
          "indexed": false,
          "internalType": "uint256",
          "name": "_value",
          "type": "uint256"
        }
      ],
      "name": "Transfer",
      "type": "event"
    },
    {
      "inputs": [
        {
          "internalType": "address",
          "name": "",
          "type": "address"
        }
      ],
      "name": "bidOfParticipant",
      "outputs": [
        {
          "internalType": "uint256",
          "name": "",
          "type": "uint256"
        }
      ],
      "stateMutability": "view",
      "type": "function",
      "constant": true
    },
    {
      "inputs": [
        {
          "internalType": "uint256",
          "name": "",
          "type": "uint256"
        }
      ],
      "name": "forecastHistory",
      "outputs": [
        {
          "internalType": "address payable",
          "name": "",
          "type": "address"
        }
      ],
      "stateMutability": "view",
      "type": "function",
      "constant": true
    },
    {
      "inputs": [],
      "name": "forecastId",
      "outputs": [
        {
          "internalType": "uint256",
          "name": "",
          "type": "uint256"
        }
      ],
      "stateMutability": "view",
      "type": "function",
      "constant": true
    },
    {
      "inputs": [
        {
          "internalType": "address",
          "name": "",
          "type": "address"
        }
      ],
      "name": "forecastOfParticipant",
      "outputs": [
        {
          "internalType": "uint256",
          "name": "",
          "type": "uint256"
        }
      ],
      "stateMutability": "view",
      "type": "function",
      "constant": true
    },
    {
      "inputs": [
        {
          "internalType": "address",
          "name": "",
          "type": "address"
        }
      ],
      "name": "isParticipant",
      "outputs": [
        {
          "internalType": "bool",
          "name": "",
          "type": "bool"
        }
      ],
      "stateMutability": "view",
      "type": "function",
      "constant": true
    },
    {
      "inputs": [
        {
          "internalType": "address",
          "name": "",
          "type": "address"
        }
      ],
      "name": "isWinner",
      "outputs": [
        {
          "internalType": "bool",
          "name": "",
          "type": "bool"
        }
      ],
      "stateMutability": "view",
      "type": "function",
      "constant": true
    },
    {
      "inputs": [],
      "name": "owner",
      "outputs": [
        {
          "internalType": "address",
          "name": "",
          "type": "address"
        }
      ],
      "stateMutability": "view",
      "type": "function",
      "constant": true
    },
    {
      "inputs": [
        {
          "internalType": "uint256",
          "name": "",
          "type": "uint256"
        }
      ],
      "name": "participants",
      "outputs": [
        {
          "internalType": "address payable",
          "name": "",
          "type": "address"
        }
      ],
      "stateMutability": "view",
      "type": "function",
      "constant": true
    },
    {
      "inputs": [
        {
          "internalType": "address",
          "name": "",
          "type": "address"
        }
      ],
      "name": "rewardOfWinner",
      "outputs": [
        {
          "internalType": "uint256",
          "name": "",
          "type": "uint256"
        }
      ],
      "stateMutability": "view",
      "type": "function",
      "constant": true
    },
    {
      "inputs": [],
      "name": "state",
      "outputs": [
        {
          "internalType": "uint8",
          "name": "",
          "type": "uint8"
        }
      ],
      "stateMutability": "view",
      "type": "function",
      "constant": true
    },
    {
      "inputs": [
        {
          "internalType": "uint256",
          "name": "",
          "type": "uint256"
        }
      ],
      "name": "winners",
      "outputs": [
        {
          "internalType": "address payable",
          "name": "",
          "type": "address"
        }
      ],
      "stateMutability": "view",
      "type": "function",
      "constant": true
    },
    {
      "inputs": [],
      "name": "getLatestPrice",
      "outputs": [
        {
          "internalType": "int256",
          "name": "",
          "type": "int256"
        }
      ],
      "stateMutability": "view",
      "type": "function",
      "constant": true
    },
    {
      "inputs": [],
      "name": "nextState",
      "outputs": [],
      "stateMutability": "nonpayable",
      "type": "function"
    },
    {
      "inputs": [
        {
          "internalType": "address",
          "name": "participant",
          "type": "address"
        }
      ],
      "name": "getForecastByAddress",
      "outputs": [
        {
          "internalType": "uint256",
          "name": "",
          "type": "uint256"
        }
      ],
      "stateMutability": "view",
      "type": "function",
      "constant": true
    },
    {
      "inputs": [],
      "name": "startReveivingForecasts",
      "outputs": [],
      "stateMutability": "nonpayable",
      "type": "function"
    },
    {
      "inputs": [],
      "name": "stopReveivingForecasts",
      "outputs": [],
      "stateMutability": "nonpayable",
      "type": "function"
    },
    {
      "inputs": [],
      "name": "rewardWinners",
      "outputs": [],
      "stateMutability": "nonpayable",
      "type": "function"
    },
    {
      "inputs": [],
      "name": "getState",
      "outputs": [
        {
          "internalType": "uint256",
          "name": "",
          "type": "uint256"
        }
      ],
      "stateMutability": "view",
      "type": "function",
      "constant": true
    },
    {
      "inputs": [],
      "name": "getBalance",
      "outputs": [
        {
          "internalType": "uint256",
          "name": "",
          "type": "uint256"
        }
      ],
      "stateMutability": "view",
      "type": "function",
      "constant": true
    },
    {
      "inputs": [],
      "name": "getParticipants",
      "outputs": [
        {
          "internalType": "address payable[]",
          "name": "",
          "type": "address[]"
        }
      ],
      "stateMutability": "view",
      "type": "function",
      "constant": true
    },
    {
      "inputs": [],
      "name": "getNumberOfParticipants",
      "outputs": [
        {
          "internalType": "uint256",
          "name": "",
          "type": "uint256"
        }
      ],
      "stateMutability": "view",
      "type": "function",
      "constant": true
    },
    {
      "inputs": [],
      "name": "getWinners",
      "outputs": [
        {
          "internalType": "address payable[]",
          "name": "",
          "type": "address[]"
        }
      ],
      "stateMutability": "view",
      "type": "function",
      "constant": true
    },
    {
      "inputs": [
        {
          "internalType": "address",
          "name": "_addr",
          "type": "address"
        }
      ],
      "name": "isOwner",
      "outputs": [
        {
          "internalType": "bool",
          "name": "",
          "type": "bool"
        }
      ],
      "stateMutability": "view",
      "type": "function",
      "constant": true
    },
    {
      "inputs": [
        {
          "internalType": "address",
          "name": "_addr",
          "type": "address"
        }
      ],
      "name": "isPart",
      "outputs": [
        {
          "internalType": "bool",
          "name": "",
          "type": "bool"
        }
      ],
      "stateMutability": "view",
      "type": "function",
      "constant": true
    },
    {
      "inputs": [
        {
          "internalType": "address",
          "name": "participant",
          "type": "address"
        }
      ],
      "name": "getRewardByAddress",
      "outputs": [
        {
          "internalType": "uint256",
          "name": "",
          "type": "uint256"
        }
      ],
      "stateMutability": "view",
      "type": "function",
      "constant": true
    },
    {
      "inputs": [
        {
          "internalType": "address",
          "name": "participant",
          "type": "address"
        }
      ],
      "name": "getBidByAddress",
      "outputs": [
        {
          "internalType": "uint256",
          "name": "",
          "type": "uint256"
        }
      ],
      "stateMutability": "view",
      "type": "function",
      "constant": true
    },
    {
      "inputs": [
        {
          "internalType": "uint256",
          "name": "_forecastValue",
          "type": "uint256"
        }
      ],
      "name": "enter",
      "outputs": [
        {
          "internalType": "bool",
          "name": "",
          "type": "bool"
        }
      ],
      "stateMutability": "payable",
      "type": "function",
      "payable": true
    },
    {
      "inputs": [
        {
          "internalType": "uint256",
          "name": "index",
          "type": "uint256"
        }
      ],
      "name": "remove",
      "outputs": [],
      "stateMutability": "nonpayable",
      "type": "function"
    },
    {
      "inputs": [
        {
          "internalType": "address",
          "name": "_addr",
          "type": "address"
        }
      ],
      "name": "getEthBalance",
      "outputs": [
        {
          "internalType": "uint256",
          "name": "",
          "type": "uint256"
        }
      ],
      "stateMutability": "view",
      "type": "function",
      "constant": true
    },
    {
      "inputs": [],
      "name": "claimReward",
      "outputs": [],
      "stateMutability": "nonpayable",
      "type": "function"
    },
    {
      "inputs": [],
      "name": "resetForecast",
      "outputs": [],
      "stateMutability": "nonpayable",
      "type": "function"
    }
  ],
  "bytecode": "0x608060405260016000806101000a81548160ff02191690831515021790555034801561002a57600080fd5b5033600160006101000a81548173ffffffffffffffffffffffffffffffffffffffff021916908373ffffffffffffffffffffffffffffffffffffffff1602179055506000600960006101000a81548160ff021916908360ff160217905550738a753747a1fa494ec906ce90e9f37563a8af630e600060016101000a81548173ffffffffffffffffffffffffffffffffffffffff021916908373ffffffffffffffffffffffffffffffffffffffff160217905550612b7f806100ec6000396000f3fe6080604052600436106101d85760003560e01c80638e15f47311610102578063c19d93fb11610095578063dcd77c5f11610064578063dcd77c5f14610703578063df15c37e14610740578063f8c33a051461076b578063ff28d2da14610782576101d8565b8063c19d93fb14610659578063c80c28a214610684578063c95e7125146106af578063d01583bc146106c6576101d8565b8063a59f3e0c116100d1578063a59f3e0c146105d0578063a6b7044d14610600578063b88a802f14610617578063ba2559181461062e576101d8565b80638e15f473146104ee578063929066f5146105195780639d9ca28d14610556578063a2fb117514610593576101d8565b80634cc822151161017a57806379281c121161014957806379281c121461040c5780637b6120831461044957806380805531146104865780638da5cb5b146104c3576101d8565b80634cc822151461033e5780634d2301cc14610367578063571e40ff146103a45780635aa68ac0146103e1576101d8565b80631865c57d116101b65780631865c57d1461025c5780632f54bf6e1461028757806335c1d349146102c45780633da850b614610301576101d8565b80630de16e43146101dd57806312065fe01461021a57806314007c6d14610245575b600080fd5b3480156101e957600080fd5b5061020460048036038101906101ff9190611f33565b610799565b6040516102119190611f79565b60405180910390f35b34801561022657600080fd5b5061022f6107b1565b60405161023c9190611f79565b60405180910390f35b34801561025157600080fd5b5061025a6107d0565b005b34801561026857600080fd5b506102716108d4565b60405161027e9190611f79565b60405180910390f35b34801561029357600080fd5b506102ae60048036038101906102a99190611f33565b6108ee565b6040516102bb9190611faf565b60405180910390f35b3480156102d057600080fd5b506102eb60048036038101906102e69190611ff6565b610958565b6040516102f89190612044565b60405180910390f35b34801561030d57600080fd5b5061032860048036038101906103239190611f33565b610997565b6040516103359190611f79565b60405180910390f35b34801561034a57600080fd5b5061036560048036038101906103609190611ff6565b610a3c565b005b34801561037357600080fd5b5061038e60048036038101906103899190611f33565b610b32565b60405161039b9190611f79565b60405180910390f35b3480156103b057600080fd5b506103cb60048036038101906103c69190611f33565b610b53565b6040516103d89190611f79565b60405180910390f35b3480156103ed57600080fd5b506103f6610b6b565b604051610403919061211d565b60405180910390f35b34801561041857600080fd5b50610433600480360381019061042e9190611f33565b610bf9565b6040516104409190611f79565b60405180910390f35b34801561045557600080fd5b50610470600480360381019061046b9190611ff6565b610cd5565b60405161047d9190612044565b60405180910390f35b34801561049257600080fd5b506104ad60048036038101906104a89190611f33565b610d08565b6040516104ba9190611f79565b60405180910390f35b3480156104cf57600080fd5b506104d8610d20565b6040516104e5919061214e565b60405180910390f35b3480156104fa57600080fd5b50610503610d46565b6040516105109190612182565b60405180910390f35b34801561052557600080fd5b50610540600480360381019061053b9190611f33565b610e0f565b60405161054d9190611faf565b60405180910390f35b34801561056257600080fd5b5061057d60048036038101906105789190611f33565b610e2f565b60405161058a9190611faf565b60405180910390f35b34801561059f57600080fd5b506105ba60048036038101906105b59190611ff6565b610e4f565b6040516105c79190612044565b60405180910390f35b6105ea60048036038101906105e59190611ff6565b610e8e565b6040516105f79190611faf565b60405180910390f35b34801561060c57600080fd5b5061061561116c565b005b34801561062357600080fd5b5061062c611239565b005b34801561063a57600080fd5b506106436114e4565b6040516106509190611f79565b60405180910390f35b34801561066557600080fd5b5061066e6114ea565b60405161067b91906121b9565b60405180910390f35b34801561069057600080fd5b506106996114fd565b6040516106a69190611f79565b60405180910390f35b3480156106bb57600080fd5b506106c461150a565b005b3480156106d257600080fd5b506106ed60048036038101906106e89190611f33565b611756565b6040516106fa9190611f79565b60405180910390f35b34801561070f57600080fd5b5061072a60048036038101906107259190611f33565b6117fb565b6040516107379190611faf565b60405180910390f35b34801561074c57600080fd5b50610755611862565b604051610762919061211d565b60405180910390f35b34801561077757600080fd5b506107806118f0565b005b34801561078e57600080fd5b506107976119bd565b005b60056020528060005260406000206000915090505481565b60003073ffffffffffffffffffffffffffffffffffffffff1631905090565b600160009054906101000a900473ffffffffffffffffffffffffffffffffffffffff1673ffffffffffffffffffffffffffffffffffffffff163373ffffffffffffffffffffffffffffffffffffffff161461082a57600080fd5b6000600960009054906101000a900460ff1660ff1603610865576001600960006101000a81548160ff021916908360ff1602179055506108d2565b6001600960009054906101000a900460ff1660ff16036108a0576002600960006101000a81548160ff021916908360ff1602179055506108d1565b6002600960009054906101000a900460ff1660ff16036108c7576108c26119bd565b6108d0565b6108cf61150a565b5b5b5b565b6000600960009054906101000a900460ff1660ff16905090565b6000600160009054906101000a900473ffffffffffffffffffffffffffffffffffffffff1673ffffffffffffffffffffffffffffffffffffffff168273ffffffffffffffffffffffffffffffffffffffff160361094e5760019050610953565b600090505b919050565b6002818154811061096857600080fd5b906000526020600020016000915054906101000a900473ffffffffffffffffffffffffffffffffffffffff1681565b6000600760008373ffffffffffffffffffffffffffffffffffffffff1673ffffffffffffffffffffffffffffffffffffffff16815260200190815260200160002060009054906101000a900460ff1615610a3257600860008373ffffffffffffffffffffffffffffffffffffffff1673ffffffffffffffffffffffffffffffffffffffff168152602001908152602001600020549050610a37565b600090505b919050565b60066001600680549050610a509190612203565b81548110610a6157610a60612237565b5b9060005260206000200160009054906101000a900473ffffffffffffffffffffffffffffffffffffffff1660068281548110610aa057610a9f612237565b5b9060005260206000200160006101000a81548173ffffffffffffffffffffffffffffffffffffffff021916908373ffffffffffffffffffffffffffffffffffffffff1602179055506006805480610afa57610af9612266565b5b6001900381819060005260206000200160006101000a81549073ffffffffffffffffffffffffffffffffffffffff0219169055905550565b60008173ffffffffffffffffffffffffffffffffffffffff16319050919050565b60046020528060005260406000206000915090505481565b60606002805480602002602001604051908101604052809291908181526020018280548015610bef57602002820191906000526020600020905b8160009054906101000a900473ffffffffffffffffffffffffffffffffffffffff1673ffffffffffffffffffffffffffffffffffffffff1681526020019060010190808311610ba5575b5050505050905090565b600060011515600360008473ffffffffffffffffffffffffffffffffffffffff1673ffffffffffffffffffffffffffffffffffffffff16815260200190815260200160002060009054906101000a900460ff16151514610c8e576040517f08c379a0000000000000000000000000000000000000000000000000000000008152600401610c85906122f2565b60405180910390fd5b600460008373ffffffffffffffffffffffffffffffffffffffff1673ffffffffffffffffffffffffffffffffffffffff168152602001908152602001600020549050919050565b600b6020528060005260406000206000915054906101000a900473ffffffffffffffffffffffffffffffffffffffff1681565b60086020528060005260406000206000915090505481565b600160009054906101000a900473ffffffffffffffffffffffffffffffffffffffff1681565b60008060009054906101000a900460ff1615610d6f5760006409e5346b40905080915050610e0c565b60008060019054906101000a900473ffffffffffffffffffffffffffffffffffffffff1673ffffffffffffffffffffffffffffffffffffffff1663feaf968c6040518163ffffffff1660e01b815260040160a060405180830381865afa158015610ddd573d6000803e3d6000fd5b505050506040513d601f19601f82011682018060405250810190610e019190612395565b505050915050809150505b90565b60036020528060005260406000206000915054906101000a900460ff1681565b60076020528060005260406000206000915054906101000a900460ff1681565b60068181548110610e5f57600080fd5b906000526020600020016000915054906101000a900473ffffffffffffffffffffffffffffffffffffffff1681565b60006001600960009054906101000a900460ff1660ff1614610ee5576040517f08c379a0000000000000000000000000000000000000000000000000000000008152600401610edc90612482565b60405180910390fd5b66038d7ea4c680003411610f2e576040517f08c379a0000000000000000000000000000000000000000000000000000000008152600401610f2590612514565b60405180910390fd5b600360003373ffffffffffffffffffffffffffffffffffffffff1673ffffffffffffffffffffffffffffffffffffffff16815260200190815260200160002060009054906101000a900460ff1615610fbb576040517f08c379a0000000000000000000000000000000000000000000000000000000008152600401610fb290612580565b60405180910390fd5b81600460003373ffffffffffffffffffffffffffffffffffffffff1673ffffffffffffffffffffffffffffffffffffffff1681526020019081526020016000208190555034600560003373ffffffffffffffffffffffffffffffffffffffff1673ffffffffffffffffffffffffffffffffffffffff168152602001908152602001600020819055506001600360003373ffffffffffffffffffffffffffffffffffffffff1673ffffffffffffffffffffffffffffffffffffffff16815260200190815260200160002060006101000a81548160ff0219169083151502179055506002339080600181540180825580915050600190039060005260206000200160009091909190916101000a81548173ffffffffffffffffffffffffffffffffffffffff021916908373ffffffffffffffffffffffffffffffffffffffff1602179055503073ffffffffffffffffffffffffffffffffffffffff163373ffffffffffffffffffffffffffffffffffffffff167fddf252ad1be2c89b69c2b068fc378daa952ba7f163c4a11628f55a4df523b3ef3460405161115b9190611f79565b60405180910390a360019050919050565b600160009054906101000a900473ffffffffffffffffffffffffffffffffffffffff1673ffffffffffffffffffffffffffffffffffffffff163373ffffffffffffffffffffffffffffffffffffffff16146111c657600080fd5b6000600960009054906101000a900460ff1660ff161461121b576040517f08c379a000000000000000000000000000000000000000000000000000000000815260040161121290612612565b60405180910390fd5b6001600960006101000a81548160ff021916908360ff160217905550565b60011515600760003373ffffffffffffffffffffffffffffffffffffffff1673ffffffffffffffffffffffffffffffffffffffff16815260200190815260200160002060009054906101000a900460ff161515146112cc576040517f08c379a00000000000000000000000000000000000000000000000000000000081526004016112c39061267e565b60405180910390fd5b6003600960009054906101000a900460ff1660ff1614611321576040517f08c379a000000000000000000000000000000000000000000000000000000000815260040161131890612710565b60405180910390fd5b60003390508073ffffffffffffffffffffffffffffffffffffffff166108fc600860003373ffffffffffffffffffffffffffffffffffffffff1673ffffffffffffffffffffffffffffffffffffffff168152602001908152602001600020549081150290604051600060405180830381858888f193505050501580156113ab573d6000803e3d6000fd5b50600760003373ffffffffffffffffffffffffffffffffffffffff1673ffffffffffffffffffffffffffffffffffffffff16815260200190815260200160002060006101000a81549060ff0219169055600860003373ffffffffffffffffffffffffffffffffffffffff1673ffffffffffffffffffffffffffffffffffffffff1681526020019081526020016000206000905560005b6006805490508110156114e0578173ffffffffffffffffffffffffffffffffffffffff166006828154811061147957611478612237565b5b9060005260206000200160009054906101000a900473ffffffffffffffffffffffffffffffffffffffff1673ffffffffffffffffffffffffffffffffffffffff16036114cd576114c881610a3c565b6114e0565b80806114d890612730565b915050611441565b5050565b600a5481565b600960009054906101000a900460ff1681565b6000600280549050905090565b600160009054906101000a900473ffffffffffffffffffffffffffffffffffffffff1673ffffffffffffffffffffffffffffffffffffffff163373ffffffffffffffffffffffffffffffffffffffff161461156457600080fd5b6003600960009054906101000a900460ff1660ff16146115b9576040517f08c379a00000000000000000000000000000000000000000000000000000000081526004016115b0906127ea565b60405180910390fd5b60008067ffffffffffffffff8111156115d5576115d461280a565b5b6040519080825280602002602001820160405280156116035781602001602082028036833780820191505090505b5060069080519060200190611619929190611e29565b5060005b6002805490508110156116d6576002818154811061163e5761163d612237565b5b9060005260206000200160009054906101000a900473ffffffffffffffffffffffffffffffffffffffff1691506000600360008473ffffffffffffffffffffffffffffffffffffffff1673ffffffffffffffffffffffffffffffffffffffff16815260200190815260200160002060006101000a81548160ff02191690831515021790555080806116ce90612730565b91505061161d565b50600067ffffffffffffffff8111156116f2576116f161280a565b5b6040519080825280602002602001820160405280156117205781602001602082028036833780820191505090505b5060029080519060200190611736929190611e29565b506000600960006101000a81548160ff021916908360ff16021790555050565b6000600360008373ffffffffffffffffffffffffffffffffffffffff1673ffffffffffffffffffffffffffffffffffffffff16815260200190815260200160002060009054906101000a900460ff16156117f157600560008373ffffffffffffffffffffffffffffffffffffffff1673ffffffffffffffffffffffffffffffffffffffff1681526020019081526020016000205490506117f6565b600090505b919050565b6000600360008373ffffffffffffffffffffffffffffffffffffffff1673ffffffffffffffffffffffffffffffffffffffff16815260200190815260200160002060009054906101000a900460ff1615611858576001905061185d565b600090505b919050565b606060068054806020026020016040519081016040528092919081815260200182805480156118e657602002820191906000526020600020905b8160009054906101000a900473ffffffffffffffffffffffffffffffffffffffff1673ffffffffffffffffffffffffffffffffffffffff168152602001906001019080831161189c575b5050505050905090565b600160009054906101000a900473ffffffffffffffffffffffffffffffffffffffff1673ffffffffffffffffffffffffffffffffffffffff163373ffffffffffffffffffffffffffffffffffffffff161461194a57600080fd5b6001600960009054906101000a900460ff1660ff161461199f576040517f08c379a0000000000000000000000000000000000000000000000000000000008152600401611996906128ab565b60405180910390fd5b6002600960006101000a81548160ff021916908360ff160217905550565b600160009054906101000a900473ffffffffffffffffffffffffffffffffffffffff1673ffffffffffffffffffffffffffffffffffffffff163373ffffffffffffffffffffffffffffffffffffffff1614611a1757600080fd5b6002600960009054906101000a900460ff1660ff1614611a6c576040517f08c379a0000000000000000000000000000000000000000000000000000000008152600401611a639061293d565b60405180910390fd5b6000611a76610d46565b9050600080600080600090506000805b600280549050811015611cbc5760028181548110611aa757611aa6612237565b5b9060005260206000200160009054906101000a900473ffffffffffffffffffffffffffffffffffffffff169550600460008773ffffffffffffffffffffffffffffffffffffffff1673ffffffffffffffffffffffffffffffffffffffff1681526020019081526020016000205494508685611b22919061295d565b93506000841215611b3a5783611b37906129f1565b93505b86606485611b489190612a39565b1015611c5b576001600760008873ffffffffffffffffffffffffffffffffffffffff1673ffffffffffffffffffffffffffffffffffffffff16815260200190815260200160002060006101000a81548160ff0219169083151502179055506006869080600181540180825580915050600190039060005260206000200160009091909190916101000a81548173ffffffffffffffffffffffffffffffffffffffff021916908373ffffffffffffffffffffffffffffffffffffffff160217905550600560008773ffffffffffffffffffffffffffffffffffffffff1673ffffffffffffffffffffffffffffffffffffffff1681526020019081526020016000205482611c549190612a93565b9150611ca9565b600560008773ffffffffffffffffffffffffffffffffffffffff1673ffffffffffffffffffffffffffffffffffffffff1681526020019081526020016000205483611ca69190612a93565b92505b8080611cb490612730565b915050611a86565b5060005b600680549050811015611e045760068181548110611ce157611ce0612237565b5b9060005260206000200160009054906101000a900473ffffffffffffffffffffffffffffffffffffffff1695508183600560008973ffffffffffffffffffffffffffffffffffffffff1673ffffffffffffffffffffffffffffffffffffffff16815260200190815260200160002054611d5a9190612a39565b611d649190612b18565b600560008873ffffffffffffffffffffffffffffffffffffffff1673ffffffffffffffffffffffffffffffffffffffff16815260200190815260200160002054611dae9190612a93565b600860008873ffffffffffffffffffffffffffffffffffffffff1673ffffffffffffffffffffffffffffffffffffffff168152602001908152602001600020819055508080611dfc90612730565b915050611cc0565b506003600960006101000a81548160ff021916908360ff160217905550505050505050565b828054828255906000526020600020908101928215611ea2579160200282015b82811115611ea15782518260006101000a81548173ffffffffffffffffffffffffffffffffffffffff021916908373ffffffffffffffffffffffffffffffffffffffff16021790555091602001919060010190611e49565b5b509050611eaf9190611eb3565b5090565b5b80821115611ecc576000816000905550600101611eb4565b5090565b600080fd5b600073ffffffffffffffffffffffffffffffffffffffff82169050919050565b6000611f0082611ed5565b9050919050565b611f1081611ef5565b8114611f1b57600080fd5b50565b600081359050611f2d81611f07565b92915050565b600060208284031215611f4957611f48611ed0565b5b6000611f5784828501611f1e565b91505092915050565b6000819050919050565b611f7381611f60565b82525050565b6000602082019050611f8e6000830184611f6a565b92915050565b60008115159050919050565b611fa981611f94565b82525050565b6000602082019050611fc46000830184611fa0565b92915050565b611fd381611f60565b8114611fde57600080fd5b50565b600081359050611ff081611fca565b92915050565b60006020828403121561200c5761200b611ed0565b5b600061201a84828501611fe1565b91505092915050565b600061202e82611ed5565b9050919050565b61203e81612023565b82525050565b60006020820190506120596000830184612035565b92915050565b600081519050919050565b600082825260208201905092915050565b6000819050602082019050919050565b61209481612023565b82525050565b60006120a6838361208b565b60208301905092915050565b6000602082019050919050565b60006120ca8261205f565b6120d4818561206a565b93506120df8361207b565b8060005b838110156121105781516120f7888261209a565b9750612102836120b2565b9250506001810190506120e3565b5085935050505092915050565b6000602082019050818103600083015261213781846120bf565b905092915050565b61214881611ef5565b82525050565b6000602082019050612163600083018461213f565b92915050565b6000819050919050565b61217c81612169565b82525050565b60006020820190506121976000830184612173565b92915050565b600060ff82169050919050565b6121b38161219d565b82525050565b60006020820190506121ce60008301846121aa565b92915050565b7f4e487b7100000000000000000000000000000000000000000000000000000000600052601160045260246000fd5b600061220e82611f60565b915061221983611f60565b92508282101561222c5761222b6121d4565b5b828203905092915050565b7f4e487b7100000000000000000000000000000000000000000000000000000000600052603260045260246000fd5b7f4e487b7100000000000000000000000000000000000000000000000000000000600052603160045260246000fd5b600082825260208201905092915050565b7f5468652061646472657373206973206e6f742061207061727469636970616e74600082015250565b60006122dc602083612295565b91506122e7826122a6565b602082019050919050565b6000602082019050818103600083015261230b816122cf565b9050919050565b600069ffffffffffffffffffff82169050919050565b61233181612312565b811461233c57600080fd5b50565b60008151905061234e81612328565b92915050565b61235d81612169565b811461236857600080fd5b50565b60008151905061237a81612354565b92915050565b60008151905061238f81611fca565b92915050565b600080600080600060a086880312156123b1576123b0611ed0565b5b60006123bf8882890161233f565b95505060206123d08882890161236b565b94505060406123e188828901612380565b93505060606123f288828901612380565b92505060806124038882890161233f565b9150509295509295909350565b7f5765206172652063757272656e746c79206e6f7420616363657074696e67206660008201527f6f72656361737473000000000000000000000000000000000000000000000000602082015250565b600061246c602883612295565b915061247782612410565b604082019050919050565b6000602082019050818103600083015261249b8161245f565b9050919050565b7f596f7520646f206e6f74206861766520656e6f7567682066756e647320746f2060008201527f7061727469636970617465000000000000000000000000000000000000000000602082015250565b60006124fe602b83612295565b9150612509826124a2565b604082019050919050565b6000602082019050818103600083015261252d816124f1565b9050919050565b7f596f752061726520616c72656164792061207061727469636970616e74000000600082015250565b600061256a601d83612295565b915061257582612534565b602082019050919050565b600060208201905081810360008301526125998161255d565b9050919050565b7f596f752063616e20737461727420726563656976696e6720666f72656361737460008201527f73206f6e6c7920696e2073746174652030000000000000000000000000000000602082015250565b60006125fc603183612295565b9150612607826125a0565b604082019050919050565b6000602082019050818103600083015261262b816125ef565b9050919050565b7f596f7520617265206e6f7420612077696e6e6572000000000000000000000000600082015250565b6000612668601483612295565b915061267382612632565b602082019050919050565b600060208201905081810360008301526126978161265b565b9050919050565b7f596f752063616e20636c61696d2074686520726577617264206f6e6c7920616660008201527f7465722074686520656e64206f6620666f726563617374000000000000000000602082015250565b60006126fa603783612295565b91506127058261269e565b604082019050919050565b60006020820190508181036000830152612729816126ed565b9050919050565b600061273b82611f60565b91507fffffffffffffffffffffffffffffffffffffffffffffffffffffffffffffffff820361276d5761276c6121d4565b5b600182019050919050565b7f596f752063616e20737461727420726563656976696e6720666f72656361737460008201527f73206f6e6c7920696e2073746174652033000000000000000000000000000000602082015250565b60006127d4603183612295565b91506127df82612778565b604082019050919050565b60006020820190508181036000830152612803816127c7565b9050919050565b7f4e487b7100000000000000000000000000000000000000000000000000000000600052604160045260246000fd5b7f596f752063616e2073746f7020726563656976696e6720666f7265636173747360008201527f206f6e6c7920696e207374617465203100000000000000000000000000000000602082015250565b6000612895603083612295565b91506128a082612839565b604082019050919050565b600060208201905081810360008301526128c481612888565b9050919050565b7f596f752063616e20726577617264207468652077696e6e657273206f6e6c792060008201527f696e207374617465203200000000000000000000000000000000000000000000602082015250565b6000612927602a83612295565b9150612932826128cb565b604082019050919050565b600060208201905081810360008301526129568161291a565b9050919050565b600061296882612169565b915061297383612169565b9250827f8000000000000000000000000000000000000000000000000000000000000000018212600084121516156129ae576129ad6121d4565b5b827f7fffffffffffffffffffffffffffffffffffffffffffffffffffffffffffffff0182136000841216156129e6576129e56121d4565b5b828203905092915050565b60006129fc82612169565b91507f80000000000000000000000000000000000000000000000000000000000000008203612a2e57612a2d6121d4565b5b816000039050919050565b6000612a4482611f60565b9150612a4f83611f60565b9250817fffffffffffffffffffffffffffffffffffffffffffffffffffffffffffffffff0483118215151615612a8857612a876121d4565b5b828202905092915050565b6000612a9e82611f60565b9150612aa983611f60565b9250827fffffffffffffffffffffffffffffffffffffffffffffffffffffffffffffffff03821115612ade57612add6121d4565b5b828201905092915050565b7f4e487b7100000000000000000000000000000000000000000000000000000000600052601260045260246000fd5b6000612b2382611f60565b9150612b2e83611f60565b925082612b3e57612b3d612ae9565b5b82820490509291505056fea26469706673582212201e433a224861103402cfbeba2593c8bb5f78275948cbb0381ecd24d7adc4749a64736f6c634300080d0033",
  "immutableReferences": {},
  "source": "// SPDX-License-Identifier: MIT\npragma solidity ^0.8.11;\n\n/* import '@uniswap/v2-core/contracts/interfaces/IUniswapV2Pair.sol';\nimport './interfaces/IERC20.sol'; */\n// https://docs.chain.link/docs/bnb-chain-addresses/\n// 0xECe365B379E1dD183B20fc5f022230C044d51404 - rinkeby btc/usd\nimport \"@chainlink/contracts/src/v0.8/interfaces/AggregatorV3Interface.sol\";\n\n\n\ncontract Forecast {\n  bool TEST = true;\n\n  AggregatorV3Interface internal priceFeed;\n\n  address public owner;\n\n  address payable[] public participants;\n  mapping(address => bool) public isParticipant;\n  mapping(address => uint) public forecastOfParticipant;\n  mapping(address => uint) public bidOfParticipant;\n\n  address payable[] public winners;\n  mapping(address => bool) public isWinner;\n  mapping(address => uint) public rewardOfWinner;\n\n  uint8 public state; // 0 - not started, 1 - receiving forecasts, 2 - waiting for a result date, 3 (never) is the same as 0\n\n  uint public forecastId;\n  mapping (uint => address payable) public forecastHistory;\n\n  event Transfer(\n        address indexed _from,\n        address indexed _to,\n        uint256 _value\n    );\n\n  constructor() {\n    owner = msg.sender;\n    /* owner = 0x05FB73503E213C602A8b76650Fc7f6C6758Cb6e8; */\n    state = 0;\n    priceFeed = AggregatorV3Interface(0x8A753747A1Fa494EC906cE90E9f37563A8AF630e); //rinkeby\n    /* priceFeed = AggregatorV3Interface(0x9326BFA02ADD2366b30bacB125260Af641031331); //kovan */\n    /* priceFeed = AggregatorV3Interface(0x9326BFA02ADD2366b30bacB125260Af641031331); //mumbai */\n  }\n\n  function getLatestPrice() public view returns (int) {\n    //STARTING COMMENT (1 of 3)\n    if (TEST) {\n      int price = 42500123456;\n      return price;\n    } else {\n      //ENDING COMMENT (2 of 3)\n    (\n        /*uint80 roundID*/,\n        int price,\n        /*uint startedAt*/,\n        /*uint timeStamp*/,\n        /*uint80 answeredInRound*/\n    ) = priceFeed.latestRoundData();\n    return price;\n    } //AND THIS TO COMMENTED (3 of 3)\n\n  }\n  function nextState() public onlyowner {\n    if (state == 0) {\n      state = 1;\n    } else {\n      if (state == 1) {\n        state = 2;\n      } else {\n        if (state == 2) {\n          rewardWinners();\n        } else {\n          resetForecast();\n        }\n      }\n    }\n  }\n  function getForecastByAddress(address participant) public view returns (uint) {\n    require(isParticipant[participant] == true, \"The address is not a participant\");\n    return forecastOfParticipant[participant];\n  }\n\n  function startReveivingForecasts() public onlyowner {\n    require(state == 0, \"You can start receiving forecasts only in state 0\");\n    state = 1;\n  }\n\n  function stopReveivingForecasts() public onlyowner {\n    require(state == 1, \"You can stop receiving forecasts only in state 1\");\n    state = 2;\n  }\n\n  function rewardWinners() public onlyowner {\n    require(state == 2, \"You can reward the winners only in state 2\");\n    uint resultValue = uint(getLatestPrice());\n    address _address;\n    uint _forecast;\n    int _err;\n    uint _fundToReward = 0;\n    uint _sumOfWinnerBids = 0;\n\n    for (uint i=0; i<participants.length; i++) {\n      _address = participants[i];\n      _forecast = forecastOfParticipant[_address];\n      _err = int(_forecast) - int(resultValue);\n      if (_err < 0) {\n        _err = -_err;\n      }\n      if (uint(_err) * 100 < resultValue) {\n\n        isWinner[_address] = true;\n        winners.push(payable(_address));\n\n        _sumOfWinnerBids = _sumOfWinnerBids + bidOfParticipant[_address];\n      }\n      else {\n        //isWinner[_address] = false;\n        _fundToReward = _fundToReward + bidOfParticipant[_address];\n        //rewardOfWinner[_address]= 0;\n      }\n\n    }\n    /* _fundToReward = _fundToReward * (10 ** 6); // can be reduced */\n    /* _sumOfWinnerBids = _sumOfWinnerBids * (10 ** 6); */\n    for (uint i=0; i<winners.length; i++) {\n      _address = winners[i];\n      rewardOfWinner[_address] = bidOfParticipant[_address] + (bidOfParticipant[_address]  * _fundToReward / _sumOfWinnerBids);\n    }\n\n\n    state = 3;\n  }\n  function getState() public view returns (uint) {\n      return state;\n  }\n\n  function getBalance() public view returns (uint) {\n      return address(this).balance;\n  }\n\n  function getParticipants() public view returns (address payable[] memory) {\n      return participants;\n  }\n  function getNumberOfParticipants() public view returns (uint) {\n      return participants.length;\n  }\n  function getWinners() public view returns (address payable[] memory) {\n      return winners;\n  }\n  function isOwner(address _addr) public view returns (bool) {\n    if (_addr == owner) {\n      return true;\n    } else {\n      return false;\n    }\n  }\n  function isPart(address _addr) public view returns (bool) {\n    if (isParticipant[_addr]) {\n      return true;\n    } else {\n      return false;\n    }\n  }\n  function getRewardByAddress(address participant) public view returns (uint) {\n      if (isWinner[participant]) {\n        return rewardOfWinner[participant];\n      } else {\n        return 0;\n      }\n  }\n  function getBidByAddress(address participant) public view returns (uint) {\n      if (isParticipant[participant]) {\n        return bidOfParticipant[participant];\n      } else {\n        return 0;\n      }\n  }\n\n  function enter(uint _forecastValue) public payable returns (bool) {\n    require(state == 1, \"We are currently not accepting forecasts\");\n    require(msg.value > .001 ether, \"You do not have enough funds to participate\");\n    // address of player entering forecast\n    require(!isParticipant[payable(msg.sender)], \"You are already a participant\");\n    /* require(msg.value > msg.value, \"You do not have enough funds to make this value prediction\"); */\n\n    /* require(payable(address(this)).send(msg.value), \"The transfer failed, you are not a participant yet\"); */\n    /* payable(address(this)).transfer(msg.value); */\n    forecastOfParticipant[msg.sender] = _forecastValue;\n    bidOfParticipant[msg.sender] = msg.value;\n    isParticipant[msg.sender] = true;\n    participants.push(payable(msg.sender));\n\n    emit Transfer(msg.sender, address(this), msg.value);\n    return true;\n  }\n  function remove(uint index) public{\n    winners[index] = winners[winners.length - 1];\n    winners.pop();\n  }\n  function getEthBalance(address _addr) public view returns(uint) {\n      return _addr.balance;\n  }\n  function claimReward() public {\n    require(isWinner[msg.sender] == true, \"You are not a winner\");\n    require(state == 3, \"You can claim the reward only after the end of forecast\");\n    address payable _to = payable(msg.sender);\n    _to.transfer(rewardOfWinner[msg.sender]);\n    /* rewardOfWinner[msg.sender] = 0; */\n    delete(isWinner[msg.sender]);\n    delete(rewardOfWinner[msg.sender]);\n    for (uint i=0; i<winners.length; i++) {\n      if (winners[i] == _to) {\n        remove(i);\n        break;\n      }\n    }\n  }\n  /* function withdrawNotClaimed() public onlyowner {\n\n  } */\n\n  function resetForecast() public onlyowner {\n    require(state == 3, \"You can start receiving forecasts only in state 3\");\n    address _address;\n    winners = new address payable[](0);\n\n    for (uint i=0; i<participants.length; i++) {\n      _address = participants[i];\n      isParticipant[_address] = false;\n    }\n    participants = new address payable[](0);\n\n    state = 0;\n  }\n  modifier onlyowner() {\n    require(msg.sender == owner);\n    _;\n  }\n}\n",
  "sourcePath": "/Users/kb/Documents/defi_projects/bitcoin_price_forecast/contracts/Forecast.sol",
  "compiler": {
    "name": "solc",
    "version": "0.8.13+commit.abaa5c0e.Emscripten.clang"
  },
  "schemaVersion": "3.4.6",
  "updatedAt": "2022-04-07T20:37:58.513Z",
  "networkType": "ethereum",
  "devdoc": {
    "kind": "dev",
    "methods": {},
    "version": 1
  },
  "userdoc": {
    "kind": "user",
    "methods": {},
    "version": 1
  }
}